:020000040000FA
:040000005BEF0FF0B3
:08000800056ED8CF06F0E0CF31
:1000100007F00001E9CF0DF0EACF08F0E1CF09F0D9
:10002000E2CF0AF0D9CF0BF0DACF0CF0F3CF14F017
:10003000F4CF15F0FACF16F000C00FF001C010F0A9
:1000400002C011F003C012F004C013F0F2AA2CEFAA
:1000500000F0F2B465EF07F0A0AA32EF00F0A1BA09
:1000600030EF07F00FC000F010C001F011C002F037
:1000700012C003F013C004F00E8E0DC0E9FF08C0DB
:10008000EAFF09C0E1FF0AC0E2FF0BC0D9FF0CC0C4
:10009000DAFF14C0F3FF15C0F4FF16C0FAFF0550D5
:1000A00007C0E0FF06C0D8FF1000F76ABA0FF66E6F
:1000B000000EF7220900F5501200040301000000B1
:1000C00000000000000000000000F76ADA0FF66E82
:1000D000000EF7220900F550120004000100000094
:1000E00000000000000000000000F76AFA0FF66E42
:1000F000000EF7220900F5501200400008004000F1
:1001000000000000000000000000000000000000EF
:10011000000000000000000000000DAE03D0F2CF90
:100120000EF0F29EF76A3C0FF66E010EF722090000
:10013000F5500DAE02D00EBEF28E1200400000004F
:10014000400000000000000000000000000000006F
:10015000000000000000000000000000F76A6C0FC3
:10016000F66E010EF7220900F55012000902430055
:10017000020100C03209040000010202010005244E
:1001800000100104240202052406000105240100D8
:1001900001070581030800FA09040100020A0000B2
:1001A00000070502024000FA070582024000FA003B
:1001B000F76AC00FF66E010EF7220900F550120023
:1001C0000200F76AD20FF66E010EF7220900F55011
:1001D000120012011001020000406104330000010E
:1001E00001020001F76AF40FF66E010EF722090012
:1001F000F5501200040309040803430043005300B0
:100200001E034300430053002000520053003200FD
:10021000330032002000440065006D006F00F2CF13
:100220000EF0F29EF76A380FF66E020EF722090002
:10023000F5500EBEF28E1200280F0106F2CF0EF01E
:10024000F29EF76A560FF66E020EF7220900F5507D
:100250000EBEF28E12000C496E6963696F21212176
:100260002020202020200000F2CF0EF0F29EF76A1E
:10027000820FF66E020EF7220900F5500EBEF28EC6
:1002800012000C50313A25662050323A25660A4554
:100290006E64657265636F3A256C642020202020AF
:1002A0002000F2CF0EF0F29EF76ABC0FF66E020E3F
:1002B000F7220900F5500EBEF28E12000C456E7644
:1002C00069616E646F206461646F73212121202055
:1002D0002020202000006D92699468943BEF07F085
:1002E0006A6A689244EF07F02C6A2B6A250E2A6E20
:1002F000800E296E2D6A2E6A080E2F6E7F6B7A9300
:10030000316A306A7B6B7C917A81000CB36BB3519C
:1003100001080AE3036AB351270FE96E000E0320B8
:10032000EA6EEF6AB32BF3D7DFDF1A6A010E1B6E9A
:10033000196A000C010EBC6FBC510F080EE3700E61
:10034000BC25016E0F0E036ED8B0032A01C0E9FF71
:1003500003C0EAFFEF6ABC2BEFD71E6A1D6A000CD0
:10036000400E0401016F050E036F026B880E006FD3
:10037000046B050E076F400E066F0001000C6A6AE1
:10038000686A9F0E6B6E390E696E6E6ABFDFD2DFD0
:10039000160E706E68A602D06896FCD76D98E0DFE6
:1003A000030E1F6E4AEF07F0698468986D8250EF64
:1003B00007F0689C56EF07F070A002D0D1DF709074
:1003C000689A5CEF07F0B7C020F0000CFF0E206EBB
:1003D000000CB56B265235E0B5513F0832E31C5096
:1003E00005E0020A0DE0010A15E01ED0036A25505F
:1003F000F2CFB7F0F29EB2DEB7BFF28EB66F14D076
:10040000036A2550F2CFB7F0F29EECDEB7BFF28E52
:10041000B66F0AD0036A2550F2CFB7F0F29ED1DE54
:10042000B7BFF28EB66F00D0252A2606B551B52B80
:10043000036A400FE96E050E0320EA6EB6C0EFFFB7
:10044000C9D7265204E1B551400801E0196AB5C088
:10045000B7F0B9DF000C256A1C6A05010351010AD7
:10046000000105E0030A08E0010A09E01FD0120EAE
:10047000266E030E1C6E1CD0430E266E19D0020E83
:100480001C6E036A05010251210FE96E000E032064
:10049000EA6EEFCF25F0036A2550F2CFB4F0F29E5A
:1004A0000001A0DEB4BFF28E266E02D08FDF0CD02A
:1004B0000501075305E12650065D02E206C526F058
:1004C000010E196E000185DF7EEF03F0B45304E1E5
:1004D000040E1F6E2FDFC1D0050E1F6EB76F800E8A
:1004E000B66F010EB56FB5510F08D8A0B6D0B86B76
:1004F000036AB551F2CFBCF0F29EE7DDBCBFF28ECD
:10050000000A51E0040EB86FD890B535036AF2CFF7
:10051000BCF0F29E02DE0900F5CF03F0BCBFF28E04
:10052000B96F03C0BAF0B551080DF350010F016E59
:10053000040E036ED8B0032A01C0E9FF03C0EAFF2E
:10054000B9C0EFFFB551080DF350020F016E040E54
:10055000036ED8B0032A01C0E9FF03C0EAFFB7C0A9
:10056000ECFFED52B6C0EFFFD890B535036AF2CF7D
:10057000BCF0F29ED2DD0900F5CF03F0BCBFF28ED5
:10058000B6270350B723880EBB6FBAB1BB81BAB38D
:10059000BB83B551080DF3CF01F0040E01C0E9FF94
:1005A000EA6EBBC0EFFF036AB551F2CFBCF0F29E1A
:1005B0007CDDBCBFF28E000A31E0B883B551080D76
:1005C000F350060F016E040E036ED8B0032A01C06B
:1005D000E9FF03C0EAFFB7C0ECFFED52B6C0EFFF82
:1005E000D890B535036AF2CFBCF0F29E7EDD0900EB
:1005F000F5CF03F0BCBFF28EB6270350B723B55139
:10060000080DF350040F016E040E036ED8B0032AD8
:1006100001C0E9FF03C0EAFF400EEF6EB8510608C3
:1006200002E10E0EB86F036AB551F2CFBCF0F29E34
:100630003CDDBCBFF28E020801E0B889700EB52522
:10064000016E0F0E036ED8B0032A01C0E9FF03C08C
:10065000EAFFB8C0EFFFB52B46D778EF03F00501EE
:10066000015100010DE0010A14E0020A1EE0060A31
:1006700027E0030A2CE00E0A2BE0010A2FE03CD011
:100680001BC040F50501416B020E0001B76F9BDEF8
:1006900035D00501022D06D0010E1B160001B76BE7
:1006A00092DE02D0000192DE29D00501022D05D094
:1006B0001B820001B76B87DE02D0000187DE1ED0EF
:1006C000020E196E02C524F0B76B7DDE17D0C3D6BB
:1006D0001AC040F5010EB76F76DE10D00501025149
:1006E000010808E302C51AF002C5B4F00001EED615
:1006F000B76B69DE000102D069DE00D0F6EF04F0CE
:100700001AC0B4F005010151000105E00A0A0BE02E
:10071000010A2BE03CD00501406B416B020E000149
:10072000B76F51DE36D0B4531EE0010EB45D036ADC
:10073000F2CFB6F0F29E3CDDB6BFF28E016E05013F
:10074000045DD8A002D000010ED0036A0451270F27
:10075000E96E000E0320EA6EEFCF40F5010E0001B6
:10076000B76F31DE01D032DE14D0B4530EE0036A2D
:1007700005010451270FE96E000E0320EA6E02C541
:10078000EFFF0001B76B1FDE01D020DE02D01EDEBE
:1007900000D0F6EF04F0B591B4BFB581B49FB5A118
:1007A00010D0036AB451F2CFB6F0F29E7EDCB6BF31
:1007B000F28E000A02E1000E01D0010E016E10D08F
:1007C0000FD0036AB451F2CFB6F0F29E7EDCB6BF12
:1007D000F28E000A02E1000E01D0010E016E00D07F
:1007E00062EF04F0B591B4BFB581B49FB5A110D04C
:1007F000B451080DF350040F016E040E036ED8B00F
:10080000032A01C0E9FF03C0EAFF880EEF6E09D09A
:10081000B451080DF3CF01F0040E01C0E9FFEA6EF8
:10082000EF6A71EF04F0B591B4BFB581B49FB5A183
:1008300010D0B451080DF350040F016E040E036E76
:10084000D8B0032A01C0E9FF03C0EAFF840EEF6EAF
:100850000AD0B451080DF3CF01F0040E01C0E9FF36
:10086000EA6E840EEF6E77EF04F0B591B4BFB581F8
:10087000B49FB5A110D0B451080DF350040F016E10
:10088000040E036ED8B0032A01C0E9FF03C0EAFFDB
:10089000EFCFB6F00AD0B451080DF3CF01F0040E3B
:1008A00001C0E9FFEA6EEFCFB6F0B6AF02D0B6B541
:1008B00002D0000E01D0010E016E81EF04F004C5DC
:1008C000B4F069D7015229E005010151010A000184
:1008D00005E0020A09E0030A0DE01DD004C5B4F0EA
:1008E00081D7B76B70DD19D004C5B4F09CD7B76B56
:1008F0006ADD13D00501406B416B04C5B4F0000103
:10090000B4D7015204E0010E0501406F0001020E50
:10091000B76F59DD02D05ADD00D0F6EF04F0FE0EBD
:10092000206E000C0501042D01D002D0045348E1D3
:10093000015100010BE0010A0DE0210A1CE0010A4F
:100940001FE0030A2EE0010A31E037D0010E806F6C
:10095000E6DF35D0050EEA6E400EE96EE26A320E31
:10096000E16E080E016EE6CFEEFF012EFCD706C544
:10097000B7F029DD24D0020E806F7A83D0DF1FD03C
:10098000050EEA6E400EE96EE26A290EE16E070E70
:10099000016EE6CFEEFF012EFCD7070EB76F13DD19
:1009A0000ED002C57FF0B76B0EDD09D002C531F065
:1009B00003C530F0B76B07DD02D008DD00D00501BC
:1009C0000001F6EF04F0196A050100517F0B0001E8
:1009D00007E0010A06E0030A05E0230A04E004D068
:1009E0003ED68ED66CD79ED7F1DC00D0DBEF06F07A
:1009F000B451080DF3CF01F0040E01C0E9FFEA6E17
:100A0000EFCFB6F0B551020806E1B6AD02D0B56B36
:100A100002D0010EB56FB551030812E1840EB66F16
:100A2000B451080DF350040F016E040E036ED8B0DC
:100A3000032A01C0E9FF03C0EAFF840EEF6E09D06C
:100A4000B52D03D0C80EB66F04D0B55302E1880EA1
:100A5000B66F036A010E026EB451006E05E0D890C5
:100A600002360336002EFBD70250FF0A006EFF0E3F
:100A7000031A00501D1603501E16D890B435036A91
:100A8000F2CFB9F0F29E8DEC00F00900F5CF03F043
:100A9000B9BFF28EB76F03C0B8F0B451080DF35070
:100AA000010F016E040E036ED8B0032A01C0E9FFE6
:100AB00003C0EAFFB7C0EFFFB8B1B681B8B3B683E1
:100AC000B451080DF3CF01F0040E01C0E9FFEA6E46
:100AD000B6C0EFFF000CC051080DF350040F016EBB
:100AE000040E036ED8B0032A01C0E9FF03C0EAFF79
:100AF000EFCFC4F0C4BF5BD0C051080DF350050F59
:100B0000016E040E036ED8B0032A01C0E9FF03C0D2
:100B1000EAFFC1C0EFFFC351020816E1C051080D42
:100B2000F350040F016E040E036ED8B0032A01C007
:100B3000E9FF03C0EAFFEFCFC4F0C4AD02D0C36B3E
:100B400002D0010EC36F13D0C351040810E1C0518D
:100B5000080DF3CF01F0040E01C0E9FFEA6EEFCFFC
:100B6000C4F0C4AD03D0010EC36F01D0C36BC32D5D
:100B700003D0C80EC46F04D0C35302E1880EC46F03
:100B8000C2B1C481C2B3C483C051080DF350040F75
:100B9000016E040E036ED8B0032A01C0E9FF03C042
:100BA000EAFFC4C0EFFF010E016E03D000D0000EBB
:100BB000016E000C8051010A03E0030A12E022D00A
:100BC000EA6A320EE96E050EE26EE16A080E016E07
:100BD000E6CFEEFF012EFCD7B76BE3EC01F0806BA4
:100BE00015D0EA6A290EE96E050EE26EE16A070E7B
:100BF000016EE6CFEEFF012EFCD7806BB76BE3EC06
:100C000001F004D0806BB0EC01F000D028EF06F0CA
:100C1000B551080DF350010F016E040E036ED8B0EC
:100C2000032A01C0E9FF03C0EAFF036AEFCF01F026
:100C300003C002F021EF06F07C817E6B020EB56FDF
:100C4000E7D701C07DF02DEF06F0B45302E1B2D733
:100C500014D0B451020802E1EFD70FD0036A010E9D
:100C6000026EB451006E05E0D89002360336002EB5
:100C7000FBD702501D1203501E12000CB5C06EFFB0
:100C8000B55303E0040E1F6E02D0020E1F6E4EEF2E
:100C900006F01A6A196A24C0B5F0F0D7C5EF06F05D
:100CA000B551080DF350040F016E040E036ED8B059
:100CB000032A01C0E9FF03C0EAFFEFCFBDF0BDBFCB
:100CC0003FD0B551080DF350060F016E040E036EB0
:100CD000D8B0032A01C0E9FF03C0EAFFECCF03F05C
:100CE000ED52EFCFBEF003C0BFF0BC6BBB6BBC518D
:100CF000B95D1AE303E1B851BB5D16E2B6C0E9FF86
:100D0000B7C0EAFFEFCFC2F0BFC0EAFFBEC0E9FF45
:100D1000C2C0EFFFBE2BD8B4BF2BB62BD8B4B72BB5
:100D2000BB2BD8B4BC2BE3D7B5C0C0F0B9C0C2F060
:100D3000B8C0C1F0BAC0C3F0CEDE015003D000D0BD
:100D4000000E016E000C7B530DE07A91020EB56F20
:100D5000B76B3A0EB66FB96B7BC0B8F0020EBA6FC4
:100D60009FDF7B6B000C7B5302E0EDDF01D07A81CB
:100D7000CAEF06F0B4530AE1192C03D0E9EC01F0F4
:100D800004D01950020801E184D704D0B4510208FC
:100D900001E1E9D7000C6C30B36FB333B3331F0EEE
:100DA000B3176C523BE1040100513C0B34081BE1CA
:100DB000046B000108D6203C05D0B46B030EB56F60
:100DC00017DE0ED0B46B020EB56F12DE2050FE0897
:100DD00007E0C06BC26B20C0C1F0040EC36F7BDEA6
:100DE0006D9819D0040100513C0B040815E1000175
:100DF000B46B2BDFB46B020EB56FFADD2050FE082A
:100E00000AE0203C01D007D0C06BC26B20C0C1F00B
:100E1000010EC36F60DE040120D000016C50040895
:100E200012E1FF0E206EB46BA5DF203C01D008D08C
:100E3000C06BC26B20C0C1F0020EC36F4CDE02D08B
:100E4000B0EC01F009D06CB404D0B3C0B4F0FDDE56
:100E500003D0B3C0B4F08EDF0401000161EF07F0EE
:100E60001F5201E12FD068522DE068A404D069A47C
:100E700002D06BEF01F06DA201D024D068A204D0A3
:100E800069A202D070EF01F068A004D069A002D07E
:100E9000BFEF01F068A804D069A802D0D4EF01F038
:100EA00068AC04D069AC02D0D9EF01F068AA04D0D4
:100EB00069AA02D0DCEF01F068A604D069A602D0CE
:100EC0006AD76896A19A32EF00F0812BF29432EF44
:100ED00000F0938293809DEF0FF0EA6AA10EE96E15
:100EE000EF500EE00F0E016E006A002EFED7012EAD
:100EF000FBD78F0E006E002EFED70000EF2EF2D72C
:100F0000000CA8B102D08C9801D08C889598A8B319
:100F100002D08C9A01D08C8A959AA8B502D08C9C6C
:100F200001D08C8C959CA8B702D08C9E01D08C8E61
:100F3000959E95968C8695968C96000C010EA75FD3
:100F40000CE3EA6AA70EE96EEF5007E0020E006EAE
:100F5000002EFED700D0EF2EF9D7BAEF07F0959408
:100F60008C94A55302E18C9401D08C849594640EEA
:100F7000A76FE4D795968C96A639A76F0F0EA71783
:100F8000A7C0A8F0BEDFA6510F0BA76FA86FB9DFEF
:100F9000000C95988C98959A8C9A959C8C9C959E13
:100FA0008C9E95948C9495968C960F0EA16F95DFE0
:100FB000010E916F9151030808E3030EA86FA1DFA2
:100FC000050EA16F8ADF912BF5D7020EA86F99DF6E
:100FD000916B915103080FE3036A9151F2CF92F0A4
:100FE000F29E0FEC01F092BFF28E936FA56BA66F8D
:100FF000B6DF912BEED79FEF0FF0080E016E110EAA
:10100000006E002EFED78A929392110E006E002E73
:10101000FED79D378A90D8B09380D8A093909382C2
:1010200081A2FED7012EEBD7110E006E002EFED747
:101030008A92939200009380110E006E002EFED7CC
:10104000110E006E002EFED7938281A2FED7016A98
:10105000110E006E002EFED781B001808A9293920D
:101060008A909390000C9380110E006E002EFED794
:101070009382110E006E002EFED78A909390110E6F
:10108000006E002EFED78A929392A00E9D6FB5DF60
:1010900001509B9101B09B8193900000938281A2AB
:1010A000FED7110E006E002EFED700D000009380F8
:1010B000110E006E002EFED7000E9BA1010E016ED8
:1010C000000CD1DF0152FDE09380110E006E002E66
:1010D000FED79382110E006E002EFED78A90939059
:1010E000110E006E002EFED78A9293929931036EF4
:1010F0009831026E0332023203320232033202327C
:10110000033202320332023203320232010E03167C
:101110000250A009FE0B9C6F9D6F6FDF98C09DF081
:101120006CDF9AC09DF069DF93900000938281A2EA
:10113000FED7110E006E002EFED700D00000938067
:10114000110E006E002EFED7000C010E996FFF0EDF
:10115000986F97C09AF0B5DF010E996FFE0E986FE9
:1011600096C09AF0AEDF010E996FFD0E986F95C094
:101170009AF0A7DF010E996FFC0E986F94C09AF059
:10118000A0DF010E996FFB0E986F93C09AF099DF64
:10119000010E996FFA0E986F92C09AF092DF010ECD
:1011A000996FF90E986F91C09AF08BDF000C6D6A01
:1011B000696A080E6F6E94503009946E1F6A186A3F
:1011C000F2BE188EF29E86EC01F018BEF28E1E6AF8
:1011D0001D6A0FEF09F0186AF2BE188EF29E86ECB7
:1011E00001F018BEF28E6D6A140E6F6E696A6D861C
:1011F000010E1F6EFFEF08F06DB601D0ECD71F2C6B
:101200000BD06DBA09D0686A696AA08AC00EF21262
:10121000110E696E020E1F6E10EF09F0C8D7ECD7E1
:101220001F500208FCE1B3EF0FF0A22D01D003D054
:10123000400EA36F01D0A36B010EA15DA327A351A4
:101240008009A46FA56BA66F8ADE49EF09F0A05153
:101250000C0A07E0060A0DE0070A0BE0050A0EE09B
:1012600012D0A56B010EA66F7ADE020EA16F35DEDD
:1012700010D0010EA16F020EA26FD7D7A56B100E72
:10128000A66F6DDE06D0010EA56FA0C0A6F067DECA
:1012900000D0000C080E9B6F00C09CF09380110ED4
:1012A000006E002EFED7938281A2FED781B0D88037
:1012B00081A0D8900136110E006E002EFED79392B9
:1012C0008A929B2FEBD79380110E006E002EFED7D3
:1012D0008A909C51D8A493900000938281A2FED75B
:1012E000110E006E002EFED78A929392110E006EA0
:1012F000002EFED78A909390DCEF09F0B4DE015205
:10130000FDE09380110E006E002EFED79382110E29
:10131000006E002EFED78A909390110E006E002E64
:10132000FED78A9293929831036E9731026E033200
:101330000232033202320332023203320232033209
:10134000023203320232010E03160250A009FE0BD4
:101350009B6F9D6F52DE97C09DF04FDE9380110E04
:10136000006E002EFED79382110E006E002EFED767
:1013700081A2FED78A909390110E006E002EFED7A8
:101380008A9293929831036E9731026E0332023241
:1013900003320232033202320332023203320232A9
:1013A00003320232010E03160250A00901099B6F9D
:1013B0009D6F23DE006A6ED701C099F09390000004
:1013C000938281A2FED7110E006E002EFED700D0B0
:1013D00000009380110E006E002EFED799C001F020
:1013E000000C000E016EC250C30B0110C26EC2820F
:1013F000C2B2FED7C4CF82F0040E016EC250C30B3E
:101400000110C26EC282C2B2FED7C4CF83F0DAEF3F
:101410000FF08E0E006E93C001F092C002F0036ACE
:10142000015209E102C001F0026A080E005E015299
:1014300002E1006A08D0D89001BE04D0023601361D
:101440000006F9D7019E000CA051D8B471D0006EEF
:10145000A451D8B46DD0002604E3810E002668E2C2
:1014600004D07F0E005E64E363E0A1C0A8F0A55144
:10147000A81BA18FA58FA351A703F4CFAAF0A25157
:10148000A603F4CF03F0F3CFA9F0A703F350AA27E4
:10149000F450A923000E0322A351A603F350AA2758
:1014A000F450A923000E026A03220222A151A703CD
:1014B000F350A927F4500322000E0222A151A603E3
:1014C000F3500326F4500222000E016A0122A351B8
:1014D000A503F350A927F4500322000E0222012293
:1014E000A251A503F3500326F4500222000E01225C
:1014F000A151A503F3500226F4500122002A01BE97
:1015000005D0A9370336023601360006000EA9AF12
:101510000AD0032A02220122015005E1025003E110
:10152000035001E1002AA8BF018EA8AF019E04D09C
:10153000006A016A026A036A000CA051B608A06F33
:10154000036AA1C0A4F0A18FD890A133A233A33322
:101550000332023201320032A02FF6D7A4AF0BD0F3
:10156000001E011E021E031E002AD8B4012AD8B490
:10157000022AD8B4032A000C006A016A026A036ACC
:10158000A86BA96BAA6BAB6BA751A611A511A411EF
:101590002CE0200EAC6FD890A037A137A237A3372C
:1015A000A837A937AA37AB37A751AB5D08E1A651D9
:1015B000AA5D05E1A551A95D02E1A451A85D0FE373
:1015C000A451A85FA551D8A0A53DA95FA651D8A058
:1015D000A63DAA5FA751D8A0A73DAB5FD880003633
:1015E000013602360336AC2FD6D7EA6AA80EE96E6A
:1015F000000CE950986F97519A6F19E096C0A3F0CC
:1016000095C0A2F094C0A1F093C0A0F0A76BA66B08
:10161000200EA56F820EA46F17DF03C096F002C0E4
:1016200095F001C094F000C093F09A2FE7D796C0D0
:10163000A3F095C0A2F094C0A1F093C0A0F07DDF0C
:1016400003C096F002C095F001C094F000C093F082
:1016500096AF0DD09807988B931F941F951F961FD8
:10166000932BD8B4942BD8B4952BD8B4962B3B0E8F
:101670009F6F9A0E9E6FCA0E9D6F9C6B0A0E9A6F9B
:101680009751D8B4982B96C0A3F095C0A2F094C0FF
:10169000A1F093C0A0F09FC0A7F09EC0A6F09DC08F
:1016A000A5F09CC0A4F068DF0150EFCF93F0ECCF21
:1016B00094F0ECCF95F0ECCF96F000520FE1972923
:1016C0009A5D0CE098510CE00F0B9A5D01E037E257
:1016D00098BF35D098BD04D0200E2DD0200E98177D
:1016E00098AB0CD0989B9751D8A498070050986F4E
:1016F0002D0EA06FACDD9851006E986B97519A5DDE
:101700000AE10050986F2E0EA06FA1DD9851006E77
:10171000200E9817000E300E98AB0DD0989B975165
:10172000D8A498070050986F2D0EA06F90DD9851A7
:10173000006E986B300E002600C0A0F088DD9FC0C0
:10174000A3F09EC0A2F09DC0A1F09CC0A0F0A76B2A
:10175000A66BA56B0A0EA46F0FDF03C09FF002C03B
:101760009EF001C09DF000C09CF09A2F8CD7000C19
:10177000EACF9CF0E9CF9BF095AF08D09B8F9BA957
:101780009B2B941F951F942BD8B4952B9539F0095A
:10179000976F9727E20F986F320F9A6F95510F0B43
:1017A000982798279A27E90F996F992799279439AD
:1017B0000F0B99279A2799379A379A1F9A3794517E
:1017C0000F0B9A279737070E966F0A0E99079A27DD
:1017D000FDE398079927FDE397079827FDE3960710
:1017E0009727FDE3EA6A960EE96E070E9B159B9D0F
:1017F000E9069B1507E19BB9E92A9BB903D0200EA6
:10180000006E1CD0E9269A0EE95CD8B49B8DEF508F
:10181000006E08E19BBD06D09BB91BD09BB702D0E0
:10182000200E0BD09BAF06D02D0E006EED509B9D71
:101830009B9F04D09B879B99300E0026EACF95F0A2
:10184000E9CF94F000C0A0F002DD95C0EAFF94C09B
:10185000E9FFEE509BADD7D762EF10F0875101083A
:1018600024E303E18651F60820E3862BD8B4872BC6
:1018700087C099F086C098F091C09AF022DC875119
:10188000000806E3996B986B86C09AF01ADC0CD0BE
:10189000FF0E865D926F000E8759936F996B010E54
:1018A000986F92C09AF00DDC16D0876B020E866F8F
:1018B000996B986B86C09AF004DC996B010E986F57
:1018C0009A6B61EC08F087C099F086C098F091C0DF
:1018D0009AF061EC08F0000C7CB101D0FDD77E518C
:1018E0007E2B036A880FE96E050E0320EA6EEFCFA8
:1018F00091F07D517E5D0CE37C91186AF2BE188EEA
:10190000F29E020EB46FB56FF8EC04F018BEF28EC2
:1019100091C001F0C9EF0DF09B51016A9A5D03E29D
:101920009AC000F00CD0006A080E9C6F9A370036FF
:101930009B51005CD8B0006E01369C2FF7D7000C8D
:10194000A091F2BEA081F29E7B513F0802E23F0EC1
:101950007B6F7B517B2B036A3A0FE96E000E0320ED
:10196000EA6E9FC0EFFFF29EA0B1F28E7AA108D07E
:10197000186AF2BE188EF29EA3EC06F018BEF28E24
:10198000D3EF0CF07B513F080BE27AA108D0186A24
:10199000F2BE188EF29EA3EC06F018BEF28EF2D7BD
:1019A0009EC09FF0CDD7000C015098C09AF0640EF5
:1019B0009B6FB2DF00C098F00150300E07E199A391
:1019C0000CD099B70AD099B9200E03D0999799995C
:1019D0009981012601C09EF0D5DF98C09AF00A0EC9
:1019E0009B6F9ADF00C098F00150300E06E199B766
:1019F00008D099A106D099B9200E012601C09EF009
:101A0000C1DF300E982798C09EF0BCDF000CE95073
:101A1000966F9551986F19E094C0A3F093C0A2F00F
:101A200092C0A1F091C0A0F0A76BA66B200EA56F8D
:101A3000820EA46F09DD03C094F002C093F001C0D0
:101A400092F000C091F0982FE7D794C0A3F093C014
:101A5000A2F092C0A1F091C0A0F06FDD03C094F09D
:101A600002C093F001C092F000C091F094AF0DD08D
:101A70009607968B911F921F931F941F912BD8B49A
:101A8000922BD8B4932BD8B4942B3B0E9D6F9A0E07
:101A90009C6FCA0E9B6F9A6B0A0E986F9551D8B4C3
:101AA000962B94C0A3F093C0A2F092C0A1F091C075
:101AB000A0F09DC0A7F09CC0A6F09BC0A5F09AC066
:101AC000A4F05ADD0150EFCF91F0ECCF92F0ECCFC3
:101AD00093F0ECCF94F000520FE19529985D0CE063
:101AE00096510CE00F0B985D01E037E296BF35D0C0
:101AF00096BD04D0200E2DD0200E961796AB0CD09C
:101B0000969B9551D8A496070050966F2D0E9E6F08
:101B100039DF9651006E966B9551985D0AE1005041
:101B2000966F2E0E9E6F2EDF9651006E200E96172A
:101B3000000E300E96AB0DD0969B9551D8A496070B
:101B40000050966F2D0E9E6F1DDF9651006E966BA6
:101B5000300E002600C09EF015DF9DC0A3F09CC093
:101B6000A2F09BC0A1F09AC0A0F0A76BA66BA56BDA
:101B70000A0EA46F01DD03C09DF002C09CF001C0FD
:101B80009BF000C09AF0982F8CD7000C7CA191D1CB
:101B9000A3D601C090F090514108D8A48AD1916B8E
:101BA000915151EC01F0912B006EA06F27EC09F0E0
:101BB000180E915DF5E1150E916F070E926F150EDF
:101BC000936F040E946F0F0E956F230E966F140E85
:101BD000976FA5EC08F0010E986FF90E976F7EECE9
:101BE00009F001C091F0010E986FFA0E976F7EEC2C
:101BF00009F001C092F0010E986FFB0E976F7EEC1A
:101C000009F001C093F0010E986FFC0E976F7EEC07
:101C100009F001C094F0010E986FFD0E976F7EECF5
:101C200009F001C095F0010E986FFE0E976F7EECE3
:101C300009F001C096F0010E986FFF0E976F7EECD1
:101C400009F001C097F091C098F01B0E996FACDEBF
:101C50002F0E9E6F97DE92C098F01B0E996FA4DE38
:101C60002F0E9E6F8FDE93C098F01B0E996F9CDE37
:101C7000200E9E6F87DE94C098F01B0E996F94DE45
:101C8000200E9E6F7FDE95C098F01B0E996F8CDE44
:101C90003A0E9E6F77DE96C098F01B0E996F84DE29
:101CA0003A0E9E6F6FDE97C098F01B0E996F7CDE28
:101CB000200E9E6F67DE0A0E9E6F64DE010E862583
:101CC000846F000E8721856F85510108D8A075D0DB
:101CD00003E18451F70871E385C098F084C097F060
:101CE0007EEC09F0936B01C092F009EC0AF003C09E
:101CF000A3F002C0A2F001C0A1F000C0A0F0A10EAC
:101D0000A76FA00EA66F200EA56F790EA46F24EC0E
:101D10000AF003C08BF002C08AF001C089F000C055
:101D200088F0842BD8B4852B85C098F084C097F0B8
:101D30007EEC09F0936B01C092F009EC0AF003C04D
:101D4000A3F002C0A2F001C0A1F000C0A0F0A10E5B
:101D5000A76FA00EA66F200EA56F790EA46F24ECBE
:101D60000AF003C08FF002C08EF001C08DF000C0F9
:101D70008CF0890EE96E8BC094F08AC093F089C014
:101D800092F088C091F0020E956F41DE200E9E6F9A
:101D9000F9DD890EE96E8FC094F08EC093F08DC08E
:101DA00092F08CC091F0020E956F31DE0A0E9E6F9C
:101DB000E9DD842BD8B4852B87D7856B020E846F21
:101DC0008551875DD8A075D003E18451865D71E3AC
:101DD00085C098F084C097F07EEC09F0936B01C049
:101DE00092F009EC0AF003C0A3F002C0A2F001C017
:101DF000A1F000C0A0F0A10EA76FA00EA66F200E4C
:101E0000A56F790EA46F24EC0AF003C08BF002C01A
:101E10008AF001C089F000C088F0842BD8B4852BEB
:101E200085C098F084C097F07EEC09F0936B01C0F8
:101E300092F009EC0AF003C0A3F002C0A2F001C0C6
:101E4000A1F000C0A0F0A10EA76FA00EA66F200EFB
:101E5000A56F790EA46F24EC0AF003C08FF002C0C6
:101E60008EF001C08DF000C08CF0890EE96E8BC041
:101E700094F08AC093F089C092F088C091F0020E6D
:101E8000956FC5DD200E9E6F7DDD890EE96E8FC0DA
:101E900094F08EC093F08DC092F08CC091F0020E41
:101EA000956FB5DD0A0E9E6F6DDD842BD8B4852B42
:101EB00087D779EF10F0F86AD09E0D8EEA6AE96A4A
:101EC000C150C00B0F09C16E070EB46E1F6A216AA4
:101ED000040E226E0C0E236E266A7B6B806B816B68
:101EE000010E866F876BC150C00B0D09C16EC0809B
:101EF000C082C084C09EC2809698C69A949E9380E9
:101F00009392010EC66E000EC76ED190850ED56EEF
:101F1000CD6A000ECA6E000ECB6EB150480BB16E8A
:101F2000070EB46E9250270E006E002EFED700D022
:101F3000B450A19CB56A69EF07F0C9EF07F0140E21
:101F4000916F070E926F150E936F030E946F010E33
:101F5000956F230E966F140E976FA5EC08F074EC36
:101F600001F00EEF09F07AA3FED7916B91511EECB0
:101F700001F0912B006EA06F27EC09F0100E915D1F
:101F8000F5E1986B976B7EEC09F0876B01C086F0EA
:101F9000986B010E976F7EEC09F001508627000EBA
:101FA0008723F28AC00EF21281510208D8B0A0D065
:101FB000F1EF09F0936B82C092F009EC0AF003C0D4
:101FC000A3F002C0A2F001C0A1F000C0A0F0A10ED9
:101FD000A76FA00EA66F200EA56F790EA46F24EC3C
:101FE0000AF003C08BF002C08AF001C089F000C083
:101FF00088F0936B83C092F009EC0AF003C0A3F061
:1020000002C0A2F001C0A1F000C0A0F0A10EA76F15
:10201000A00EA66F200EA56F790EA46F24EC0AF017
:1020200003C08FF002C08EF001C08DF000C08CF0B4
:10203000916B915134EC01F0912B006EA06F27EC65
:1020400009F0040E915DF5E1890EE96E8BC096F002
:102050008AC095F089C094F088C093F0020E976F03
:10206000F9EC0AF0060E926F925134EC01F0922BCB
:10207000006EA06F27EC09F00A0E925DF5E1890E63
:10208000E96E8FC096F08EC095F08DC094F08CC034
:1020900093F0020E976FF9EC0AF00C0E936F9351C8
:1020A00034EC01F0932B006EA06F27EC09F0160EB4
:1020B000935DF5E1100EE96E87C095F086C094F04F
:1020C000B8EF0BF0190E946F945134EC01F0942B8F
:1020D000006EA06F27EC09F01F0E945DF5E182C041
:1020E00091F02EEC0CF083C091F02EEC0CF0816B93
:0620F0004DD55AD7030094
:020000040030CA
:0E00000020CC1F0E008385000FC00FE00F40C4
:00000001FF
;PIC18F4550
